{
  "contractName": "Account",
  "abi": [
    {
      "constant": true,
      "inputs": [
        {
          "internalType": "address",
          "name": "",
          "type": "address"
        }
      ],
      "name": "coinOwnerCount",
      "outputs": [
        {
          "internalType": "uint256",
          "name": "",
          "type": "uint256"
        }
      ],
      "payable": false,
      "stateMutability": "view",
      "type": "function"
    },
    {
      "constant": true,
      "inputs": [
        {
          "internalType": "address",
          "name": "",
          "type": "address"
        }
      ],
      "name": "foodOwnerCount",
      "outputs": [
        {
          "internalType": "uint256",
          "name": "",
          "type": "uint256"
        }
      ],
      "payable": false,
      "stateMutability": "view",
      "type": "function"
    },
    {
      "constant": true,
      "inputs": [
        {
          "internalType": "address",
          "name": "",
          "type": "address"
        }
      ],
      "name": "ironOwnerCount",
      "outputs": [
        {
          "internalType": "uint256",
          "name": "",
          "type": "uint256"
        }
      ],
      "payable": false,
      "stateMutability": "view",
      "type": "function"
    },
    {
      "constant": true,
      "inputs": [
        {
          "internalType": "address",
          "name": "",
          "type": "address"
        }
      ],
      "name": "stoneOwnerCount",
      "outputs": [
        {
          "internalType": "uint256",
          "name": "",
          "type": "uint256"
        }
      ],
      "payable": false,
      "stateMutability": "view",
      "type": "function"
    },
    {
      "constant": true,
      "inputs": [
        {
          "internalType": "address",
          "name": "",
          "type": "address"
        }
      ],
      "name": "woodOwnerCount",
      "outputs": [
        {
          "internalType": "uint256",
          "name": "",
          "type": "uint256"
        }
      ],
      "payable": false,
      "stateMutability": "view",
      "type": "function"
    }
  ],
  "bytecode": "0x608060405234801561001057600080fd5b506102c1806100206000396000f3fe608060405234801561001057600080fd5b50600436106100575760003560e01c80638226e5301461005c578063867b84e2146100b4578063e428afa01461010c578063e5b285f214610164578063ef78b6dc146101bc575b600080fd5b61009e6004803603602081101561007257600080fd5b81019080803573ffffffffffffffffffffffffffffffffffffffff169060200190929190505050610214565b6040518082815260200191505060405180910390f35b6100f6600480360360208110156100ca57600080fd5b81019080803573ffffffffffffffffffffffffffffffffffffffff16906020019092919050505061022c565b6040518082815260200191505060405180910390f35b61014e6004803603602081101561012257600080fd5b81019080803573ffffffffffffffffffffffffffffffffffffffff169060200190929190505050610244565b6040518082815260200191505060405180910390f35b6101a66004803603602081101561017a57600080fd5b81019080803573ffffffffffffffffffffffffffffffffffffffff16906020019092919050505061025c565b6040518082815260200191505060405180910390f35b6101fe600480360360208110156101d257600080fd5b81019080803573ffffffffffffffffffffffffffffffffffffffff169060200190929190505050610274565b6040518082815260200191505060405180910390f35b60016020528060005260406000206000915090505481565b60046020528060005260406000206000915090505481565b60006020528060005260406000206000915090505481565b60026020528060005260406000206000915090505481565b6003602052806000526040600020600091509050548156fea265627a7a723158204f3a2a473f350ce1b890dfe4113d4cc2ecfc55e70defbc36a4a7b14bff02eaf364736f6c63430005100032",
  "source": "pragma solidity >=0.4.21 <0.7.0;\r\n\r\nimport \"./SafeMath.sol\";\r\n\r\ncontract Account {\r\n    \r\n    using SafeMath for uint;\r\n    \r\n    mapping (address => uint) public stoneOwnerCount;\r\n    mapping (address => uint) public ironOwnerCount;\r\n    mapping (address => uint) public foodOwnerCount;\r\n    mapping (address => uint) public coinOwnerCount;\r\n    mapping (address => uint) public woodOwnerCount;\r\n    \r\n    function _cost(uint food, uint wood, uint iron, uint stone, uint coin) internal returns (bool){\r\n        if(foodOwnerCount[msg.sender]>=food && woodOwnerCount[msg.sender]>=wood && ironOwnerCount[msg.sender]>=iron && stoneOwnerCount[msg.sender]>=stone && coinOwnerCount[msg.sender]>=coin){\r\n            foodOwnerCount[msg.sender] -= food;\r\n            woodOwnerCount[msg.sender] -= wood;\r\n            ironOwnerCount[msg.sender] -= iron;\r\n            stoneOwnerCount[msg.sender] -= stone;\r\n            coinOwnerCount[msg.sender] -= coin;\r\n            /*ChangeFood(foodOwnerCount[msg.sender]);\r\n            ChangeWood(woodOwnerCount[msg.sender]);\r\n            ChangeIron(ironOwnerCount[msg.sender]);\r\n            ChangeStone(stoneOwnerCount[msg.sender]);\r\n            ChangeCoin(coinOwnerCount[msg.sender]);*/\r\n            return true;\r\n        }\r\n        return false;\r\n    }\r\n}",
  "sourcePath": "/mnt/c/凡林/大三上/網媒實驗/final project/github_fali/NmlabFinal/contracts/Account.sol",
  "compiler": {
    "name": "solc",
    "version": "0.5.16+commit.9c3226ce.Emscripten.clang"
  },
  "schemaVersion": "3.3.2",
  "updatedAt": "2020-12-28T17:48:46.292Z",
  "devdoc": {
    "methods": {}
  },
  "userdoc": {
    "methods": {}
  }
}