{
  "contractName": "BuildingFactory",
  "abi": [
    {
      "constant": true,
      "inputs": [
        {
          "internalType": "uint256",
          "name": "",
          "type": "uint256"
        }
      ],
      "name": "buildingToOwner",
      "outputs": [
        {
          "internalType": "address",
          "name": "",
          "type": "address"
        }
      ],
      "payable": false,
      "stateMutability": "view",
      "type": "function"
    },
    {
      "constant": true,
      "inputs": [
        {
          "internalType": "uint256",
          "name": "",
          "type": "uint256"
        }
      ],
      "name": "buildings",
      "outputs": [
        {
          "internalType": "string",
          "name": "name",
          "type": "string"
        },
        {
          "internalType": "uint256",
          "name": "placeX",
          "type": "uint256"
        },
        {
          "internalType": "uint256",
          "name": "placeY",
          "type": "uint256"
        },
        {
          "internalType": "uint256",
          "name": "level",
          "type": "uint256"
        }
      ],
      "payable": false,
      "stateMutability": "view",
      "type": "function"
    },
    {
      "constant": true,
      "inputs": [
        {
          "internalType": "address",
          "name": "",
          "type": "address"
        }
      ],
      "name": "coinOwnerCount",
      "outputs": [
        {
          "internalType": "uint256",
          "name": "",
          "type": "uint256"
        }
      ],
      "payable": false,
      "stateMutability": "view",
      "type": "function"
    },
    {
      "constant": true,
      "inputs": [
        {
          "internalType": "address",
          "name": "",
          "type": "address"
        }
      ],
      "name": "foodOwnerCount",
      "outputs": [
        {
          "internalType": "uint256",
          "name": "",
          "type": "uint256"
        }
      ],
      "payable": false,
      "stateMutability": "view",
      "type": "function"
    },
    {
      "constant": true,
      "inputs": [
        {
          "internalType": "address",
          "name": "",
          "type": "address"
        }
      ],
      "name": "ironOwnerCount",
      "outputs": [
        {
          "internalType": "uint256",
          "name": "",
          "type": "uint256"
        }
      ],
      "payable": false,
      "stateMutability": "view",
      "type": "function"
    },
    {
      "constant": true,
      "inputs": [
        {
          "internalType": "address",
          "name": "",
          "type": "address"
        }
      ],
      "name": "stoneOwnerCount",
      "outputs": [
        {
          "internalType": "uint256",
          "name": "",
          "type": "uint256"
        }
      ],
      "payable": false,
      "stateMutability": "view",
      "type": "function"
    },
    {
      "constant": true,
      "inputs": [
        {
          "internalType": "address",
          "name": "",
          "type": "address"
        }
      ],
      "name": "woodOwnerCount",
      "outputs": [
        {
          "internalType": "uint256",
          "name": "",
          "type": "uint256"
        }
      ],
      "payable": false,
      "stateMutability": "view",
      "type": "function"
    },
    {
      "constant": true,
      "inputs": [
        {
          "internalType": "address",
          "name": "_owner",
          "type": "address"
        },
        {
          "internalType": "uint256",
          "name": "_placeX",
          "type": "uint256"
        },
        {
          "internalType": "uint256",
          "name": "_placeY",
          "type": "uint256"
        }
      ],
      "name": "getBuildingByOwner",
      "outputs": [
        {
          "internalType": "uint256",
          "name": "",
          "type": "uint256"
        }
      ],
      "payable": false,
      "stateMutability": "view",
      "type": "function"
    },
    {
      "constant": true,
      "inputs": [
        {
          "internalType": "address",
          "name": "_owner",
          "type": "address"
        }
      ],
      "name": "getBuildingsByOwner",
      "outputs": [
        {
          "internalType": "uint256[]",
          "name": "",
          "type": "uint256[]"
        }
      ],
      "payable": false,
      "stateMutability": "view",
      "type": "function"
    },
    {
      "constant": true,
      "inputs": [
        {
          "internalType": "address",
          "name": "_owner",
          "type": "address"
        },
        {
          "internalType": "string",
          "name": "_name",
          "type": "string"
        }
      ],
      "name": "getSpecificBuildingByOwner",
      "outputs": [
        {
          "internalType": "uint256[]",
          "name": "",
          "type": "uint256[]"
        }
      ],
      "payable": false,
      "stateMutability": "view",
      "type": "function"
    }
  ],
  "bytecode": "0x6080604052600a600555600a60075534801561001a57600080fd5b5061113b8061002a6000396000f3fe608060405234801561001057600080fd5b506004361061009e5760003560e01c8063842a89fa11610066578063842a89fa146103ee578063867b84e21461045a578063e428afa0146104b2578063e5b285f21461050a578063ef78b6dc146105625761009e565b80632c79c523146100a35780634c96a062146101d35780635192b2911461028f5780638226e530146102fd57806382a4182814610355575b600080fd5b61017c600480360360408110156100b957600080fd5b81019080803573ffffffffffffffffffffffffffffffffffffffff169060200190929190803590602001906401000000008111156100f657600080fd5b82018360208201111561010857600080fd5b8035906020019184600183028401116401000000008311171561012a57600080fd5b91908080601f016020809104026020016040519081016040528093929190818152602001838380828437600081840152601f19601f8201169050808301925050505050505091929192905050506105ba565b6040518080602001828103825283818151815260200191508051906020019060200280838360005b838110156101bf5780820151818401526020810190506101a4565b505050509050019250505060405180910390f35b6101ff600480360360208110156101e957600080fd5b8101908080359060200190929190505050610b52565b6040518080602001858152602001848152602001838152602001828103825286818151815260200191508051906020019080838360005b83811015610251578082015181840152602081019050610236565b50505050905090810190601f16801561027e5780820380516001836020036101000a031916815260200191505b509550505050505060405180910390f35b6102bb600480360360208110156102a557600080fd5b8101908080359060200190929190505050610c27565b604051808273ffffffffffffffffffffffffffffffffffffffff1673ffffffffffffffffffffffffffffffffffffffff16815260200191505060405180910390f35b61033f6004803603602081101561031357600080fd5b81019080803573ffffffffffffffffffffffffffffffffffffffff169060200190929190505050610c5a565b6040518082815260200191505060405180910390f35b6103976004803603602081101561036b57600080fd5b81019080803573ffffffffffffffffffffffffffffffffffffffff169060200190929190505050610c72565b6040518080602001828103825283818151815260200191508051906020019060200280838360005b838110156103da5780820151818401526020810190506103bf565b505050509050019250505060405180910390f35b6104446004803603606081101561040457600080fd5b81019080803573ffffffffffffffffffffffffffffffffffffffff1690602001909291908035906020019092919080359060200190929190505050610f33565b6040518082815260200191505060405180910390f35b61049c6004803603602081101561047057600080fd5b81019080803573ffffffffffffffffffffffffffffffffffffffff16906020019092919050505061101e565b6040518082815260200191505060405180910390f35b6104f4600480360360208110156104c857600080fd5b81019080803573ffffffffffffffffffffffffffffffffffffffff169060200190929190505050611036565b6040518082815260200191505060405180910390f35b61054c6004803603602081101561052057600080fd5b81019080803573ffffffffffffffffffffffffffffffffffffffff16906020019092919050505061104e565b6040518082815260200191505060405180910390f35b6105a46004803603602081101561057857600080fd5b81019080803573ffffffffffffffffffffffffffffffffffffffff169060200190929190505050611066565b6040518082815260200191505060405180910390f35b606060006040518060400160405280600481526020017f4661726d00000000000000000000000000000000000000000000000000000000815250805190602001208380519060200120141561065057600c60008573ffffffffffffffffffffffffffffffffffffffff1673ffffffffffffffffffffffffffffffffffffffff1681526020019081526020016000205490506109be565b6040518060400160405280600481526020017f4d696e650000000000000000000000000000000000000000000000000000000081525080519060200120838051906020012014156106e257600d60008573ffffffffffffffffffffffffffffffffffffffff1673ffffffffffffffffffffffffffffffffffffffff1681526020019081526020016000205490506109bd565b6040518060400160405280600581526020017f4d616e6f72000000000000000000000000000000000000000000000000000000815250805190602001208380519060200120141561077457600e60008573ffffffffffffffffffffffffffffffffffffffff1673ffffffffffffffffffffffffffffffffffffffff1681526020019081526020016000205490506109bc565b6040518060400160405280600681526020017f5175617272790000000000000000000000000000000000000000000000000000815250805190602001208380519060200120141561080657600f60008573ffffffffffffffffffffffffffffffffffffffff1673ffffffffffffffffffffffffffffffffffffffff1681526020019081526020016000205490506109bb565b6040518060400160405280600781526020017f5361776d696c6c00000000000000000000000000000000000000000000000000815250805190602001208380519060200120141561089857601060008573ffffffffffffffffffffffffffffffffffffffff1673ffffffffffffffffffffffffffffffffffffffff1681526020019081526020016000205490506109ba565b6040518060400160405280600681526020017f43656c6c61720000000000000000000000000000000000000000000000000000815250805190602001208380519060200120141561092a57601160008573ffffffffffffffffffffffffffffffffffffffff1673ffffffffffffffffffffffffffffffffffffffff1681526020019081526020016000205490506109b9565b6040518060400160405280600781526020017f4261727261636b0000000000000000000000000000000000000000000000000081525080519060200120838051906020012014156109b857601260008573ffffffffffffffffffffffffffffffffffffffff1673ffffffffffffffffffffffffffffffffffffffff1681526020019081526020016000205490505b5b5b5b5b5b5b6060816040519080825280602002602001820160405280156109ef5781602001602082028038833980820191505090505b509050600080905060008090505b600680549050811015610b45578673ffffffffffffffffffffffffffffffffffffffff166008600083815260200190815260200160002060009054906101000a900473ffffffffffffffffffffffffffffffffffffffff1673ffffffffffffffffffffffffffffffffffffffff16148015610b035750858051906020012060068281548110610a8857fe5b90600052602060002090600402016000016040518082805460018160011615610100020316600290048015610af45780601f10610ad2576101008083540402835291820191610af4565b820191906000526020600020905b815481529060010190602001808311610ae0575b50509150506040518091039020145b15610b385780838381518110610b1557fe5b602002602001018181525050610b3560018361107e90919063ffffffff16565b91505b80806001019150506109fd565b5081935050505092915050565b60068181548110610b5f57fe5b9060005260206000209060040201600091509050806000018054600181600116156101000203166002900480601f016020809104026020016040519081016040528092919081815260200182805460018160011615610100020316600290048015610c0b5780601f10610be057610100808354040283529160200191610c0b565b820191906000526020600020905b815481529060010190602001808311610bee57829003601f168201915b5050505050908060010154908060020154908060030154905084565b60086020528060005260406000206000915054906101000a900473ffffffffffffffffffffffffffffffffffffffff1681565b60016020528060005260406000206000915090505481565b606080601260008473ffffffffffffffffffffffffffffffffffffffff1673ffffffffffffffffffffffffffffffffffffffff16815260200190815260200160002054601160008573ffffffffffffffffffffffffffffffffffffffff1673ffffffffffffffffffffffffffffffffffffffff16815260200190815260200160002054601060008673ffffffffffffffffffffffffffffffffffffffff1673ffffffffffffffffffffffffffffffffffffffff16815260200190815260200160002054600f60008773ffffffffffffffffffffffffffffffffffffffff1673ffffffffffffffffffffffffffffffffffffffff16815260200190815260200160002054600e60008873ffffffffffffffffffffffffffffffffffffffff1673ffffffffffffffffffffffffffffffffffffffff16815260200190815260200160002054600d60008973ffffffffffffffffffffffffffffffffffffffff1673ffffffffffffffffffffffffffffffffffffffff16815260200190815260200160002054600c60008a73ffffffffffffffffffffffffffffffffffffffff1673ffffffffffffffffffffffffffffffffffffffff16815260200190815260200160002054010101010101604051908082528060200260200182016040528015610e695781602001602082028038833980820191505090505b509050600080905060008090505b600680549050811015610f28578473ffffffffffffffffffffffffffffffffffffffff166008600083815260200190815260200160002060009054906101000a900473ffffffffffffffffffffffffffffffffffffffff1673ffffffffffffffffffffffffffffffffffffffff161415610f1b5780838381518110610ef857fe5b602002602001018181525050610f1860018361107e90919063ffffffff16565b91505b8080600101915050610e77565b508192505050919050565b600080600090505b600680549050811015611015578473ffffffffffffffffffffffffffffffffffffffff166008600083815260200190815260200160002060009054906101000a900473ffffffffffffffffffffffffffffffffffffffff1673ffffffffffffffffffffffffffffffffffffffff161415611008578360068281548110610fbd57fe5b906000526020600020906004020160010154148015610ff957508260068281548110610fe557fe5b906000526020600020906004020160010154145b156110075780915050611017565b5b8080600101915050610f3b565b505b9392505050565b60046020528060005260406000206000915090505481565b60006020528060005260406000206000915090505481565b60026020528060005260406000206000915090505481565b60036020528060005260406000206000915090505481565b6000808284019050838110156110fc576040517f08c379a000000000000000000000000000000000000000000000000000000000815260040180806020018281038252601b8152602001807f536166654d6174683a206164646974696f6e206f766572666c6f77000000000081525060200191505060405180910390fd5b809150509291505056fea265627a7a7231582010b9d00f8866f58dd8175a6da840e29f1e2485d85e6a583773f8a30578904dd764736f6c63430005100032",
  "source": "pragma solidity >=0.4.21 <0.7.0;\r\n\r\nimport \"./SafeMath.sol\";\r\nimport \"./Account.sol\";\r\n\r\ncontract BuildingFactory is Account {\r\n    \r\n    using SafeMath for uint;\r\n    \r\n    struct Building {\r\n        string name;\r\n        uint placeX;\r\n        uint placeY;\r\n        uint level;\r\n    }\r\n\r\n    uint buildTimeNeed = 10;\r\n    Building[] public buildings;\r\n    uint buildResourceNeed = 10;\r\n\r\n    mapping (uint => address) public buildingToOwner;\r\n    mapping (address => uint) ownerStartBuildTime;\r\n    mapping (address => uint) ownerBuildingId; //the building that is building\r\n    mapping (address => uint) castleLevel;\r\n\r\n    mapping (address => uint) ownerFarmCount;\r\n    mapping (address => uint) ownerMineCount;\r\n    mapping (address => uint) ownerManorCount;\r\n    mapping (address => uint) ownerQuarryCount;\r\n    mapping (address => uint) ownerSawmillCount;\r\n    mapping (address => uint) ownerCellarCount;\r\n    mapping (address => uint) ownerBarrackCount;\r\n\r\n\r\n    function _createBuilding(string memory _name, uint _x, uint _y) internal {\r\n        uint id = buildings.push(Building(_name, _x, _y, 1)).sub(1);\r\n        _cost(0, buildResourceNeed, buildResourceNeed, buildResourceNeed, buildResourceNeed);\r\n        buildingToOwner[id] = msg.sender;\r\n        if (keccak256(bytes(_name)) == keccak256(bytes(\"Farm\"))) {\r\n            ownerFarmCount[msg.sender] = ownerFarmCount[msg.sender].add(1);\r\n        }\r\n        else if (keccak256(bytes(_name)) == keccak256(bytes(\"Mine\"))) {\r\n            ownerMineCount[msg.sender] = ownerMineCount[msg.sender].add(1);\r\n        }\r\n        else if (keccak256(bytes(_name)) == keccak256(bytes(\"Manor\"))) {\r\n            ownerManorCount[msg.sender] = ownerManorCount[msg.sender].add(1);\r\n        }\r\n        else if (keccak256(bytes(_name)) == keccak256(bytes(\"Quarry\"))) {\r\n            ownerQuarryCount[msg.sender] = ownerQuarryCount[msg.sender].add(1);\r\n        }\r\n        else if (keccak256(bytes(_name)) == keccak256(bytes(\"Sawmill\"))) {\r\n            ownerSawmillCount[msg.sender] = ownerSawmillCount[msg.sender].add(1);\r\n        }\r\n        else if (keccak256(bytes(_name)) == keccak256(bytes(\"Cellar\"))) {\r\n            ownerCellarCount[msg.sender] = ownerCellarCount[msg.sender].add(1);\r\n        }\r\n        else if (keccak256(bytes(_name)) == keccak256(bytes(\"Barrack\"))) {\r\n            ownerBarrackCount[msg.sender] = ownerBarrackCount[msg.sender].add(1);\r\n        }\r\n    }\r\n\r\n    function _startBuild(address _owner, uint _x, uint _y) internal returns(uint){\r\n        uint buildingID = getBuildingByOwner(_owner, _x, _y);\r\n        if (keccak256(bytes(buildings[buildingID].name)) != keccak256(bytes(\"Castle\"))) {\r\n            require(castleLevel[_owner] >= buildings[buildingID].level.add(1));\r\n        }\r\n        ownerBuildingId[_owner] = buildingID;\r\n        ownerStartBuildTime[_owner] = now;\r\n        uint buildingResourceNeed = buildings[buildingID].level * buildResourceNeed;\r\n        _cost(0, buildingResourceNeed, buildingResourceNeed, buildingResourceNeed, buildingResourceNeed);\r\n        return buildings[buildingID].level * buildTimeNeed;\r\n    }\r\n    \r\n    function _updateBuild(address _owner) internal returns(uint){\r\n        uint buildingID = ownerBuildingId[_owner];\r\n        if (ownerStartBuildTime[_owner] != 0 && now >= ownerStartBuildTime[_owner] + buildings[buildingID].level * buildTimeNeed) {\r\n            buildings[buildingID].level = buildings[buildingID].level.add(1);\r\n            ownerStartBuildTime[_owner] = 0;\r\n            return 0;\r\n        }\r\n        else {\r\n            uint remainingTime = ownerStartBuildTime[_owner] + buildings[buildingID].level * buildTimeNeed - now;\r\n            return remainingTime;\r\n        }\r\n    }\r\n\r\n    function getBuildingByOwner(address _owner, uint _placeX, uint _placeY) public view returns(uint) {\r\n        for (uint i = 0; i < buildings.length; i++) {\r\n            if (buildingToOwner[i] == _owner) {\r\n                if (buildings[i].placeX == _placeX && buildings[i].placeX == _placeY) {\r\n                    return i;\r\n                }\r\n            }\r\n        }\r\n    }\r\n\r\n    function getBuildingsByOwner(address _owner) public view returns(uint[] memory) {\r\n        uint[] memory result = new uint[](ownerFarmCount[_owner] + ownerMineCount[_owner] + ownerManorCount[_owner] + ownerQuarryCount[_owner] + ownerSawmillCount[_owner] + ownerCellarCount[_owner] + ownerBarrackCount[_owner]);\r\n        uint counter = 0;\r\n        for (uint i = 0; i < buildings.length; i++) {\r\n            if (buildingToOwner[i] == _owner) {\r\n                result[counter] = i;\r\n                counter = counter.add(1);\r\n            }\r\n        }\r\n        return result;\r\n    }\r\n\r\n    function getSpecificBuildingByOwner(address _owner, string memory _name) public view returns(uint[] memory) {\r\n        uint buildingsLength;\r\n        if (keccak256(bytes(_name)) == keccak256(bytes(\"Farm\"))) {\r\n           buildingsLength = ownerFarmCount[_owner];\r\n        }\r\n        else if (keccak256(bytes(_name)) == keccak256(bytes(\"Mine\"))) {\r\n            buildingsLength = ownerMineCount[_owner];\r\n        }\r\n        else if (keccak256(bytes(_name)) == keccak256(bytes(\"Manor\"))) {\r\n            buildingsLength = ownerManorCount[_owner];\r\n        }\r\n        else if (keccak256(bytes(_name)) == keccak256(bytes(\"Quarry\"))) {\r\n            buildingsLength = ownerQuarryCount[_owner];\r\n        }\r\n        else if (keccak256(bytes(_name)) == keccak256(bytes(\"Sawmill\"))) {\r\n            buildingsLength = ownerSawmillCount[_owner];\r\n        }\r\n        else if (keccak256(bytes(_name)) == keccak256(bytes(\"Cellar\"))) {\r\n            buildingsLength = ownerCellarCount[_owner];\r\n        }\r\n        else if (keccak256(bytes(_name)) == keccak256(bytes(\"Barrack\"))) {\r\n            buildingsLength = ownerBarrackCount[_owner];\r\n        }\r\n        uint[] memory result = new uint[](buildingsLength);\r\n        // result.push(0);\r\n        uint counter = 0;\r\n        for (uint i = 0; i < buildings.length; i++) {\r\n            if (buildingToOwner[i] == _owner && keccak256(bytes(buildings[i].name)) == keccak256(bytes(_name))) {\r\n                result[counter] = i;\r\n                counter = counter.add(1);\r\n            }\r\n        }\r\n        return result;\r\n    }\r\n\r\n    \r\n}",
  "sourcePath": "/mnt/c/凡林/大三上/網媒實驗/final project/github_fali/NmlabFinal/contracts/BuildingFactory.sol",
  "compiler": {
    "name": "solc",
    "version": "0.5.16+commit.9c3226ce.Emscripten.clang"
  },
  "schemaVersion": "3.3.2",
  "updatedAt": "2020-12-28T17:48:46.390Z",
  "devdoc": {
    "methods": {}
  },
  "userdoc": {
    "methods": {}
  }
}